{
  "contractName": "MicroPayment",
  "abi": [
    {
      "inputs": [],
      "stateMutability": "nonpayable",
      "type": "constructor"
    },
    {
      "anonymous": false,
      "inputs": [
        {
          "indexed": true,
          "internalType": "address",
          "name": "user",
          "type": "address"
        },
        {
          "indexed": false,
          "internalType": "uint256",
          "name": "amount",
          "type": "uint256"
        }
      ],
      "name": "Deposit",
      "type": "event"
    },
    {
      "anonymous": false,
      "inputs": [
        {
          "indexed": true,
          "internalType": "address",
          "name": "from",
          "type": "address"
        },
        {
          "indexed": true,
          "internalType": "address",
          "name": "to",
          "type": "address"
        },
        {
          "indexed": false,
          "internalType": "uint256",
          "name": "amount",
          "type": "uint256"
        },
        {
          "indexed": false,
          "internalType": "uint256",
          "name": "transactionId",
          "type": "uint256"
        }
      ],
      "name": "TransactionCreated",
      "type": "event"
    },
    {
      "anonymous": false,
      "inputs": [
        {
          "indexed": true,
          "internalType": "uint256",
          "name": "transactionId",
          "type": "uint256"
        }
      ],
      "name": "TransactionProcessed",
      "type": "event"
    },
    {
      "anonymous": false,
      "inputs": [
        {
          "indexed": true,
          "internalType": "address",
          "name": "user",
          "type": "address"
        },
        {
          "indexed": false,
          "internalType": "uint256",
          "name": "amount",
          "type": "uint256"
        }
      ],
      "name": "Withdrawal",
      "type": "event"
    },
    {
      "inputs": [
        {
          "internalType": "address",
          "name": "",
          "type": "address"
        }
      ],
      "name": "balances",
      "outputs": [
        {
          "internalType": "uint256",
          "name": "",
          "type": "uint256"
        }
      ],
      "stateMutability": "view",
      "type": "function",
      "constant": true
    },
    {
      "inputs": [],
      "name": "owner",
      "outputs": [
        {
          "internalType": "address",
          "name": "",
          "type": "address"
        }
      ],
      "stateMutability": "view",
      "type": "function",
      "constant": true
    },
    {
      "inputs": [
        {
          "internalType": "uint256",
          "name": "",
          "type": "uint256"
        }
      ],
      "name": "transactions",
      "outputs": [
        {
          "internalType": "address",
          "name": "from",
          "type": "address"
        },
        {
          "internalType": "address",
          "name": "to",
          "type": "address"
        },
        {
          "internalType": "uint256",
          "name": "amount",
          "type": "uint256"
        },
        {
          "internalType": "uint256",
          "name": "timestamp",
          "type": "uint256"
        },
        {
          "internalType": "string",
          "name": "description",
          "type": "string"
        },
        {
          "internalType": "bool",
          "name": "isProcessed",
          "type": "bool"
        }
      ],
      "stateMutability": "view",
      "type": "function",
      "constant": true
    },
    {
      "inputs": [],
      "name": "deposit",
      "outputs": [],
      "stateMutability": "payable",
      "type": "function",
      "payable": true
    },
    {
      "inputs": [
        {
          "internalType": "uint256",
          "name": "amount",
          "type": "uint256"
        }
      ],
      "name": "withdraw",
      "outputs": [],
      "stateMutability": "nonpayable",
      "type": "function"
    },
    {
      "inputs": [
        {
          "internalType": "address",
          "name": "to",
          "type": "address"
        },
        {
          "internalType": "uint256",
          "name": "amount",
          "type": "uint256"
        },
        {
          "internalType": "string",
          "name": "description",
          "type": "string"
        }
      ],
      "name": "createTransaction",
      "outputs": [],
      "stateMutability": "nonpayable",
      "type": "function"
    },
    {
      "inputs": [
        {
          "internalType": "uint256",
          "name": "transactionId",
          "type": "uint256"
        }
      ],
      "name": "processTransaction",
      "outputs": [],
      "stateMutability": "nonpayable",
      "type": "function"
    },
    {
      "inputs": [],
      "name": "getAllTransactions",
      "outputs": [
        {
          "components": [
            {
              "internalType": "address",
              "name": "from",
              "type": "address"
            },
            {
              "internalType": "address",
              "name": "to",
              "type": "address"
            },
            {
              "internalType": "uint256",
              "name": "amount",
              "type": "uint256"
            },
            {
              "internalType": "uint256",
              "name": "timestamp",
              "type": "uint256"
            },
            {
              "internalType": "string",
              "name": "description",
              "type": "string"
            },
            {
              "internalType": "bool",
              "name": "isProcessed",
              "type": "bool"
            }
          ],
          "internalType": "struct MicroPayment.Transaction[]",
          "name": "",
          "type": "tuple[]"
        }
      ],
      "stateMutability": "view",
      "type": "function",
      "constant": true
    },
    {
      "inputs": [],
      "name": "getBalance",
      "outputs": [
        {
          "internalType": "uint256",
          "name": "",
          "type": "uint256"
        }
      ],
      "stateMutability": "view",
      "type": "function",
      "constant": true
    }
  ],
  "bytecode": "0x608060405234801561001057600080fd5b50336000806101000a81548173ffffffffffffffffffffffffffffffffffffffff021916908373ffffffffffffffffffffffffffffffffffffffff16021790555061167d806100606000396000f3fe6080604052600436106100865760003560e01c80638da5cb5b116100595780638da5cb5b146101475780639ace38c214610172578063d0e30db0146101b4578063e1f6048d146101be578063f0066f83146101e757610086565b806312065fe01461008b57806327506f53146100b657806327e235e3146100e15780632e1a7d4d1461011e575b600080fd5b34801561009757600080fd5b506100a0610210565b6040516100ad919061132a565b60405180910390f35b3480156100c257600080fd5b506100cb610257565b6040516100d89190611288565b60405180910390f35b3480156100ed57600080fd5b5061010860048036038101906101039190610e48565b610423565b604051610115919061132a565b60405180910390f35b34801561012a57600080fd5b5061014560048036038101906101409190610ed8565b61043b565b005b34801561015357600080fd5b5061015c6105ab565b6040516101699190611205565b60405180910390f35b34801561017e57600080fd5b5061019960048036038101906101949190610ed8565b6105cf565b6040516101ab96959493929190611220565b60405180910390f35b6101bc6106f0565b005b3480156101ca57600080fd5b506101e560048036038101906101e09190610e71565b6107d9565b005b3480156101f357600080fd5b5061020e60048036038101906102099190610ed8565b610a3a565b005b6000600160003373ffffffffffffffffffffffffffffffffffffffff1673ffffffffffffffffffffffffffffffffffffffff16815260200190815260200160002054905090565b60606002805480602002602001604051908101604052809291908181526020016000905b8282101561041a57838290600052602060002090600602016040518060c00160405290816000820160009054906101000a900473ffffffffffffffffffffffffffffffffffffffff1673ffffffffffffffffffffffffffffffffffffffff1673ffffffffffffffffffffffffffffffffffffffff1681526020016001820160009054906101000a900473ffffffffffffffffffffffffffffffffffffffff1673ffffffffffffffffffffffffffffffffffffffff1673ffffffffffffffffffffffffffffffffffffffff168152602001600282015481526020016003820154815260200160048201805461036e90611549565b80601f016020809104026020016040519081016040528092919081815260200182805461039a90611549565b80156103e75780601f106103bc576101008083540402835291602001916103e7565b820191906000526020600020905b8154815290600101906020018083116103ca57829003601f168201915b505050505081526020016005820160009054906101000a900460ff1615151515815250508152602001906001019061027b565b50505050905090565b60016020528060005260406000206000915090505481565b80600160003373ffffffffffffffffffffffffffffffffffffffff1673ffffffffffffffffffffffffffffffffffffffff1681526020019081526020016000205410156104bd576040517f08c379a00000000000000000000000000000000000000000000000000000000081526004016104b4906112ca565b60405180910390fd5b80600160003373ffffffffffffffffffffffffffffffffffffffff1673ffffffffffffffffffffffffffffffffffffffff168152602001908152602001600020600082825461050c919061148b565b925050819055503373ffffffffffffffffffffffffffffffffffffffff166108fc829081150290604051600060405180830381858888f19350505050158015610559573d6000803e3d6000fd5b503373ffffffffffffffffffffffffffffffffffffffff167f7fcf532c15f0a6db0bd6d0e038bea71d30d808c7d98cb3bf7268a95bf5081b65826040516105a0919061132a565b60405180910390a250565b60008054906101000a900473ffffffffffffffffffffffffffffffffffffffff1681565b600281815481106105df57600080fd5b90600052602060002090600602016000915090508060000160009054906101000a900473ffffffffffffffffffffffffffffffffffffffff16908060010160009054906101000a900473ffffffffffffffffffffffffffffffffffffffff169080600201549080600301549080600401805461065a90611549565b80601f016020809104026020016040519081016040528092919081815260200182805461068690611549565b80156106d35780601f106106a8576101008083540402835291602001916106d3565b820191906000526020600020905b8154815290600101906020018083116106b657829003601f168201915b5050505050908060050160009054906101000a900460ff16905086565b60003411610733576040517f08c379a000000000000000000000000000000000000000000000000000000000815260040161072a906112aa565b60405180910390fd5b34600160003373ffffffffffffffffffffffffffffffffffffffff1673ffffffffffffffffffffffffffffffffffffffff16815260200190815260200160002060008282546107829190611435565b925050819055503373ffffffffffffffffffffffffffffffffffffffff167fe1fffcc4923d04b559f4d29a8bfc6cda04eb5b0d3c460751c2402c5c5cc9109c346040516107cf919061132a565b60405180910390a2565b81600160003373ffffffffffffffffffffffffffffffffffffffff1673ffffffffffffffffffffffffffffffffffffffff16815260200190815260200160002054101561085b576040517f08c379a0000000000000000000000000000000000000000000000000000000008152600401610852906112ca565b60405180910390fd5b6000600280549050905060026040518060c001604052803373ffffffffffffffffffffffffffffffffffffffff1681526020018673ffffffffffffffffffffffffffffffffffffffff16815260200185815260200142815260200184815260200160001515815250908060018154018082558091505060019003906000526020600020906006020160009091909190915060008201518160000160006101000a81548173ffffffffffffffffffffffffffffffffffffffff021916908373ffffffffffffffffffffffffffffffffffffffff16021790555060208201518160010160006101000a81548173ffffffffffffffffffffffffffffffffffffffff021916908373ffffffffffffffffffffffffffffffffffffffff160217905550604082015181600201556060820151816003015560808201518160040190805190602001906109aa929190610d13565b5060a08201518160050160006101000a81548160ff02191690831515021790555050508373ffffffffffffffffffffffffffffffffffffffff163373ffffffffffffffffffffffffffffffffffffffff167f41d8c89c4a25824354aa1f198d80d06f2f93f903a2d180d1ea20429a4678c4a48584604051610a2c929190611345565b60405180910390a350505050565b6002805490508110610a81576040517f08c379a0000000000000000000000000000000000000000000000000000000008152600401610a789061130a565b60405180910390fd5b600060028281548110610abd577f4e487b7100000000000000000000000000000000000000000000000000000000600052603260045260246000fd5b906000526020600020906006020190508060050160009054906101000a900460ff1615610b1f576040517f08c379a0000000000000000000000000000000000000000000000000000000008152600401610b16906112ea565b60405180910390fd5b8060020154600160008360000160009054906101000a900473ffffffffffffffffffffffffffffffffffffffff1673ffffffffffffffffffffffffffffffffffffffff1673ffffffffffffffffffffffffffffffffffffffff168152602001908152602001600020541015610bc9576040517f08c379a0000000000000000000000000000000000000000000000000000000008152600401610bc0906112ca565b60405180910390fd5b8060020154600160008360000160009054906101000a900473ffffffffffffffffffffffffffffffffffffffff1673ffffffffffffffffffffffffffffffffffffffff1673ffffffffffffffffffffffffffffffffffffffff1681526020019081526020016000206000828254610c40919061148b565b925050819055508060020154600160008360010160009054906101000a900473ffffffffffffffffffffffffffffffffffffffff1673ffffffffffffffffffffffffffffffffffffffff1673ffffffffffffffffffffffffffffffffffffffff1681526020019081526020016000206000828254610cbe9190611435565b9250508190555060018160050160006101000a81548160ff021916908315150217905550817f0e3449ab05e450acb6ab2fe1365dd1958dc6a723a3d31d329249efafbcc157e860405160405180910390a25050565b828054610d1f90611549565b90600052602060002090601f016020900481019282610d415760008555610d88565b82601f10610d5a57805160ff1916838001178555610d88565b82800160010185558215610d88579182015b82811115610d87578251825591602001919060010190610d6c565b5b509050610d959190610d99565b5090565b5b80821115610db2576000816000905550600101610d9a565b5090565b6000610dc9610dc48461139f565b61136e565b905082815260208101848484011115610de157600080fd5b610dec848285611507565b509392505050565b600081359050610e0381611619565b92915050565b600082601f830112610e1a57600080fd5b8135610e2a848260208601610db6565b91505092915050565b600081359050610e4281611630565b92915050565b600060208284031215610e5a57600080fd5b6000610e6884828501610df4565b91505092915050565b600080600060608486031215610e8657600080fd5b6000610e9486828701610df4565b9350506020610ea586828701610e33565b925050604084013567ffffffffffffffff811115610ec257600080fd5b610ece86828701610e09565b9150509250925092565b600060208284031215610eea57600080fd5b6000610ef884828501610e33565b91505092915050565b6000610f0d838361115e565b905092915050565b610f1e816114bf565b82525050565b610f2d816114bf565b82525050565b6000610f3e826113df565b610f488185611402565b935083602082028501610f5a856113cf565b8060005b85811015610f965784840389528151610f778582610f01565b9450610f82836113f5565b925060208a01995050600181019050610f5e565b50829750879550505050505092915050565b610fb1816114d1565b82525050565b610fc0816114d1565b82525050565b6000610fd1826113ea565b610fdb8185611413565b9350610feb818560208601611516565b610ff481611608565b840191505092915050565b600061100a826113ea565b6110148185611424565b9350611024818560208601611516565b61102d81611608565b840191505092915050565b6000611045602583611424565b91507f4465706f73697420616d6f756e74206d7573742062652067726561746572207460008301527f68616e20300000000000000000000000000000000000000000000000000000006020830152604082019050919050565b60006110ab601483611424565b91507f496e73756666696369656e742062616c616e63650000000000000000000000006000830152602082019050919050565b60006110eb601d83611424565b91507f5472616e73616374696f6e20616c72656164792070726f6365737365640000006000830152602082019050919050565b600061112b601a83611424565b91507f5472616e73616374696f6e20646f6573206e6f742065786973740000000000006000830152602082019050919050565b600060c0830160008301516111766000860182610f15565b5060208301516111896020860182610f15565b50604083015161119c60408601826111e7565b5060608301516111af60608601826111e7565b50608083015184820360808601526111c78282610fc6565b91505060a08301516111dc60a0860182610fa8565b508091505092915050565b6111f0816114fd565b82525050565b6111ff816114fd565b82525050565b600060208201905061121a6000830184610f24565b92915050565b600060c0820190506112356000830189610f24565b6112426020830188610f24565b61124f60408301876111f6565b61125c60608301866111f6565b818103608083015261126e8185610fff565b905061127d60a0830184610fb7565b979650505050505050565b600060208201905081810360008301526112a28184610f33565b905092915050565b600060208201905081810360008301526112c381611038565b9050919050565b600060208201905081810360008301526112e38161109e565b9050919050565b60006020820190508181036000830152611303816110de565b9050919050565b600060208201905081810360008301526113238161111e565b9050919050565b600060208201905061133f60008301846111f6565b92915050565b600060408201905061135a60008301856111f6565b61136760208301846111f6565b9392505050565b6000604051905081810181811067ffffffffffffffff82111715611395576113946115d9565b5b8060405250919050565b600067ffffffffffffffff8211156113ba576113b96115d9565b5b601f19601f8301169050602081019050919050565b6000819050602082019050919050565b600081519050919050565b600081519050919050565b6000602082019050919050565b600082825260208201905092915050565b600082825260208201905092915050565b600082825260208201905092915050565b6000611440826114fd565b915061144b836114fd565b9250827fffffffffffffffffffffffffffffffffffffffffffffffffffffffffffffffff038211156114805761147f61157b565b5b828201905092915050565b6000611496826114fd565b91506114a1836114fd565b9250828210156114b4576114b361157b565b5b828203905092915050565b60006114ca826114dd565b9050919050565b60008115159050919050565b600073ffffffffffffffffffffffffffffffffffffffff82169050919050565b6000819050919050565b82818337600083830152505050565b60005b83811015611534578082015181840152602081019050611519565b83811115611543576000848401525b50505050565b6000600282049050600182168061156157607f821691505b60208210811415611575576115746115aa565b5b50919050565b7f4e487b7100000000000000000000000000000000000000000000000000000000600052601160045260246000fd5b7f4e487b7100000000000000000000000000000000000000000000000000000000600052602260045260246000fd5b7f4e487b7100000000000000000000000000000000000000000000000000000000600052604160045260246000fd5b6000601f19601f8301169050919050565b611622816114bf565b811461162d57600080fd5b50565b611639816114fd565b811461164457600080fd5b5056fea2646970667358221220878324d8f82ba009c79d7107c8596aa52d10a2648e400987c71f95892dd9c55064736f6c63430008000033",
  "immutableReferences": {},
  "source": "// SPDX-License-Identifier: MIT\r\npragma solidity ^0.8.0;\r\n\r\ncontract MicroPayment {\r\n    address public owner;\r\n    mapping(address => uint256) public balances;\r\n    \r\n    // Transaction yaps\r\n    struct Transaction {\r\n        address from;\r\n        address to;\r\n        uint256 amount;\r\n        uint256 timestamp;\r\n        string description;\r\n        bool isProcessed;\r\n    }\r\n    \r\n    Transaction[] public transactions;\r\n    \r\n    // Olaylar\r\n    event Deposit(address indexed user, uint256 amount);\r\n    event Withdrawal(address indexed user, uint256 amount);\r\n    event TransactionCreated(address indexed from, address indexed to, uint256 amount, uint256 transactionId);\r\n    event TransactionProcessed(uint256 indexed transactionId);\r\n    \r\n    constructor() {\r\n        owner = msg.sender;\r\n    }\r\n    \r\n    // Para yatrma fonksiyonu\r\n    function deposit() public payable {\r\n        require(msg.value > 0, \"Deposit amount must be greater than 0\");\r\n        balances[msg.sender] += msg.value;\r\n        emit Deposit(msg.sender, msg.value);\r\n    }\r\n    \r\n    // Para ekme fonksiyonu\r\n    function withdraw(uint256 amount) public {\r\n        require(balances[msg.sender] >= amount, \"Insufficient balance\");\r\n        balances[msg.sender] -= amount;\r\n        payable(msg.sender).transfer(amount);\r\n        emit Withdrawal(msg.sender, amount);\r\n    }\r\n    \r\n    // deme oluturma\r\n    function createTransaction(address to, uint256 amount, string memory description) public {\r\n        require(balances[msg.sender] >= amount, \"Insufficient balance\");\r\n        \r\n        uint256 transactionId = transactions.length;\r\n        transactions.push(Transaction({\r\n            from: msg.sender,\r\n            to: to,\r\n            amount: amount,\r\n            timestamp: block.timestamp,\r\n            description: description,\r\n            isProcessed: false\r\n        }));\r\n        \r\n        emit TransactionCreated(msg.sender, to, amount, transactionId);\r\n    }\r\n    \r\n    // deme ileme\r\n    function processTransaction(uint256 transactionId) public {\r\n        require(transactionId < transactions.length, \"Transaction does not exist\");\r\n        Transaction storage txn = transactions[transactionId];\r\n        \r\n        require(!txn.isProcessed, \"Transaction already processed\");\r\n        require(balances[txn.from] >= txn.amount, \"Insufficient balance\");\r\n        \r\n        balances[txn.from] -= txn.amount;\r\n        balances[txn.to] += txn.amount;\r\n        txn.isProcessed = true;\r\n        \r\n        emit TransactionProcessed(transactionId);\r\n    }\r\n    \r\n    // Tm ilemleri getir\r\n    function getAllTransactions() public view returns (Transaction[] memory) {\r\n        return transactions;\r\n    }\r\n    \r\n    // Kullanc bakiyesini kontrol et\r\n    function getBalance() public view returns (uint256) {\r\n        return balances[msg.sender];\r\n    }\r\n}",
  "sourcePath": "C:\\Users\\HUAWEI\\blockchain-mikro-odeme\\contracts\\contracts\\MicroPayment.sol",
  "compiler": {
    "name": "solc",
    "version": "0.8.0+commit.c7dfd78e.Emscripten.clang"
  },
  "schemaVersion": "3.4.16",
  "updatedAt": "2025-05-15T13:42:04.461Z",
  "networkType": "ethereum",
  "devdoc": {
    "kind": "dev",
    "methods": {},
    "version": 1
  },
  "userdoc": {
    "kind": "user",
    "methods": {},
    "version": 1
  }
}